S0150000554C574F535F6475616C5F6C65642E6D6F7439
S1070000B304FFFF43
S1130004D900E500F100FD000901150121012D01CC
S11300143901450151015D016901750181018D01B8
S11300249901A501B101BD01C901D501E101ED01A8
S1130034F9010502EE051102FFFFFFFFFFFF1D0298
S11300442902350241024D025902650271027D0200
S11300548902FFFFFFFFFFFFFFFF9502FFFFA102DD
S1130064FFFFFFFFFFFFFFFFFFFFFFFFFFFFFFFF98
S10F0074FFFFFFFFFFFFFFFFFFFFAD02D7
S10700C06091E885DA
S10D00C4000000000000000000002E
S11300D8D761CFC1C3C5C7C6C4C2C061FC61CFC1A3
S11300E8C3C5C7C6C4C2C061FC61CFC1C3C5C7C646
S11300F8C4C2C061FC61CFC1C3C5C7C6C4C2C061A4
S1130108FC61CFC1C3C5C7C6C4C2C061FC61CFC14D
S1130118C3C5C7C6C4C2C061FC61CFC1C3C5C7C615
S1130128C4C2C061FC61CFC1C3C5C7C6C4C2C06173
S1130138FC61CFC1C3C5C7C6C4C2C061FC61CFC11D
S1130148C3C5C7C6C4C2C061FC61CFC1C3C5C7C6E5
S1130158C4C2C061FC61CFC1C3C5C7C6C4C2C06143
S1130168FC61CFC1C3C5C7C6C4C2C061FC61CFC1ED
S1130178C3C5C7C6C4C2C061FC61CFC1C3C5C7C6B5
S1130188C4C2C061FC61CFC1C3C5C7C6C4C2C06113
S1130198FC61CFC1C3C5C7C6C4C2C061FC61CFC1BD
S11301A8C3C5C7C6C4C2C061FC61CFC1C3C5C7C685
S11301B8C4C2C061FC61CFC1C3C5C7C6C4C2C061E3
S11301C8FC61CFC1C3C5C7C6C4C2C061FC61CFC18D
S11301D8C3C5C7C6C4C2C061FC61CFC1C3C5C7C655
S11301E8C4C2C061FC61CFC1C3C5C7C6C4C2C061B3
S11301F8FC61CFC1C3C5C7C6C4C2C061FC61CFC15D
S1130208C3C5C7C6C4C2C061FC61CFC1C3C5C7C624
S1130218C4C2C061FC61CFC1C3C5C7C6C4C2C06182
S1130228FC61CFC1C3C5C7C6C4C2C061FC61CFC12C
S1130238C3C5C7C6C4C2C061FC61CFC1C3C5C7C6F4
S1130248C4C2C061FC61CFC1C3C5C7C6C4C2C06152
S1130258FC61CFC1C3C5C7C6C4C2C061FC61CFC1FC
S1130268C3C5C7C6C4C2C061FC61CFC1C3C5C7C6C4
S1130278C4C2C061FC61CFC1C3C5C7C6C4C2C06122
S1130288FC61CFC1C3C5C7C6C4C2C061FC61CFC1CC
S1130298C3C5C7C6C4C2C061FC61CFC1C3C5C7C694
S11302A8C4C2C061FC61CFC1C3C5C7C6C4C2C061F2
S11302B8FC61EFC1C361CF201C717807FFF6B81841
S11302C8F6B81AA818B804A81AB806A8064401006B
S11302D871FFA80461F8449F8661F3EC210300A828
S11302E818BDF4A81ABDF6ADF4040100BDE8ADF6D6
S11302F861D8A1BDEAADE8B818ADEAB81AA818BD26
S1130308F0A81ABDF2ADF244010071FFADF061F836
S1130318449F8661E3ECE70200717007FFF6B818A2
S1130328F6B81AA818B800A81AB802A80244010016
S113033871FFA80061F8449F8661F3ECC10200AD27
S1130348F0B810ADF2B812ADF4B814ADF6B816A8FA
S113035818BDF4A81ABDF6ADF4040100BDE8ADF665
S113036861D8A1BDEAADE8B818ADEAB81AA818BDB5
S1130378F0A81ABDF2ADF244010071FFADF061F8C6
S1130388449F8661E3EC570300ADF0B808ADF2B8BA
S11303980AA810BDF0A812BDF2ADF4B80CADF6B8B9
S11303A80EA814BDF4A816BDF6ECC1020061EFC195
S11303B8C361CF201C716807FFF6B818F6B81AA8ED
S11303C818B804A81AB806A80644030071FFA804BC
S11303D861F8443F0D61F3EC1D0400A818BDF4A8AE
S11303E81ABDF6ADF4040100BDE8ADF661D8A1BDAF
S11303F8EAADE8B818ADEAB81AA818BDF0A81ABD4D
S1130408F2ADF244030071FFADF061F8443F0D61B1
S1130418E3ECE30300716007FFF6B818F6B81AA80E
S113042818B800A81AB802A80244030071FFA8006B
S113043861F8443F0D61F3ECBD0300ADF0B810ADB5
S1130448F2B812ADF4B814ADF6B816A818BDF4A8ED
S11304581ABDF6ADF4040100BDE8ADF661D8A1BD3E
S1130468EAADE8B818ADEAB81AA818BDF0A81ABDDC
S1130478F2ADF244030071FFADF061F8443F0D6141
S1130488E3EC530400ADF0B808ADF2B80AA810BD07
S1130498F0A812BDF2ADF4B80CADF6B80EA814BDB0
S11304A8F4A816BDF6ECBD0300B304CBF8DCFE419A
S11304B80061CF34D8003600EF61DF3600EF30003A
S11304C8EF27311E440000DD0EB161CF11A9BBA591
S11304D8A5A7A761DFEFED61CF30000061DF306CC5
S11304E8F13600EF27311E440000DD0AB161CFBBAD
S11304F8A7A761DFEFF161CFFCD80000003000004E
S1130508C1C1C1FC710600EFFE61FFD901EFF131F1
S11305181D3202EF0314AEF8B95118D901EF80D691
S1130528040AEFBEF861EFC1C3C5C761DFC1C3C523
S1130538C761CFC1C3C5C761FFD75118D901EFD669
S1130548040AEFBEF861CFC6C4C2C061DFC6C4C224
S1130558C061EFC6C4C2C061FFD901EFF1311D32D9
S113056802EF0314A9BEF861FCD74000EF0361F35E
S1130578ECC90500A804BF6AEF8F00EF9F01EFA044
S113058800EF61FFFBF8FFF6348000F3F901EF8216
S113059805B3D3DFFBD2DFF812306CEF03BEF814D7
S11305A8300086C1AF6AEFC1D901EFF1311D3202C3
S11305B8EF0314AEF8B917BEF861CF8F01EF9DF0C1
S11305C8D7CDF0FFD7F501EF51109FF3007170F00C
S11305D800300E80BF90FF7128E7FF61FFAF02EF84
S11305E8BEF861FC00D761FFD901EFF1311D320279
S11305F8EF0314AEF8B95118D901EF80D6040AEF05
S1130608BEF861EFC1C3C5C761DFC1C3C5C761CF48
S1130618C1C3C5C761FFA001EF8F01EF9DF28F0031
S1130628EF9DF08DF2318FCDF10046F071FF7177B7
S1130638F161D8EC420600F501EF5118D901EFD663
S1130648040AEFBEF861CFC6C4C2C061DFC6C4C223
S1130658C061EFC6C4C2C061FFD901EFF1311D32D8
S113066802EF0314A9BEF861FC2002717827FF7118
S11306786827FF717807FF30B902B800FC720500DB
S113068830B503B800FC720500FCCD0500EC9506F6
S105069800005C
S90304B345
