S0100000554C574F535F4C43442E6D6F74A5
S10700008F09FFFF62
S1130004D900E500F100FD000901150121012D01CC
S11300143901450151015D016901750181018D01B8
S11300249901A501B101BD01C901D501E101ED01A8
S1130034F9010502CA0A1102FFFFFFFFFFFF1D02B7
S11300442902350241024D025902650271027D0200
S11300548902FFFFFFFFFFFFFFFF9502FFFFA102DD
S1130064FFFFFFFFFFFFFFFFFFFFFFFFFFFFFFFF98
S10F0074FFFFFFFFFFFFFFFFFFFFAD02D7
S10700C06091E885DA
S10D00C4000000000000000000002E
S11300D8D761CFC1C3C5C7C6C4C2C061FC61CFC1A3
S11300E8C3C5C7C6C4C2C061FC61CFC1C3C5C7C646
S11300F8C4C2C061FC61CFC1C3C5C7C6C4C2C061A4
S1130108FC61CFC1C3C5C7C6C4C2C061FC61CFC14D
S1130118C3C5C7C6C4C2C061FC61CFC1C3C5C7C615
S1130128C4C2C061FC61CFC1C3C5C7C6C4C2C06173
S1130138FC61CFC1C3C5C7C6C4C2C061FC61CFC11D
S1130148C3C5C7C6C4C2C061FC61CFC1C3C5C7C6E5
S1130158C4C2C061FC61CFC1C3C5C7C6C4C2C06143
S1130168FC61CFC1C3C5C7C6C4C2C061FC61CFC1ED
S1130178C3C5C7C6C4C2C061FC61CFC1C3C5C7C6B5
S1130188C4C2C061FC61CFC1C3C5C7C6C4C2C06113
S1130198FC61CFC1C3C5C7C6C4C2C061FC61CFC1BD
S11301A8C3C5C7C6C4C2C061FC61CFC1C3C5C7C685
S11301B8C4C2C061FC61CFC1C3C5C7C6C4C2C061E3
S11301C8FC61CFC1C3C5C7C6C4C2C061FC61CFC18D
S11301D8C3C5C7C6C4C2C061FC61CFC1C3C5C7C655
S11301E8C4C2C061FC61CFC1C3C5C7C6C4C2C061B3
S11301F8FC61CFC1C3C5C7C6C4C2C061FC61CFC15D
S1130208C3C5C7C6C4C2C061FC61CFC1C3C5C7C624
S1130218C4C2C061FC61CFC1C3C5C7C6C4C2C06182
S1130228FC61CFC1C3C5C7C6C4C2C061FC61CFC12C
S1130238C3C5C7C6C4C2C061FC61CFC1C3C5C7C6F4
S1130248C4C2C061FC61CFC1C3C5C7C6C4C2C06152
S1130258FC61CFC1C3C5C7C6C4C2C061FC61CFC1FC
S1130268C3C5C7C6C4C2C061FC61CFC1C3C5C7C6C4
S1130278C4C2C061FC61CFC1C3C5C7C6C4C2C06122
S1130288FC61CFC1C3C5C7C6C4C2C061FC61CFC1CC
S1130298C3C5C7C6C4C2C061FC61CFC1C3C5C7C694
S11302A8C4C2C061FC61CFC1C3C5C7C6C4C2C061F2
S11302B8FC88049DF2D4F261F8ECDF0200C9F02A4C
S11302C80400B6F0ADF044000061E8ECC90200B4E3
S11302D8F261E8ECC50200D788049DF05C089DF142
S11302E8D4F161F8EC2E0300713007FF8DF05C0443
S11302F89DF1D4F161F8EC400300712007FF8DF003
S11303085C029DF1D4F161F8EC520300711007FF0F
S11303185AF00161E8EC5F0300710807FF714005BA
S1130328FF714805FFD7713807FF8DF05C049DF114
S1130338D4F161E8EC020300712807FF8DF05C0238
S11303489DF1D4F161E8EC140300711807FF5AF029
S11303580161F8EC210300710007FF714005FF718A
S11303684805FFD761EFC161CF2002880A9DE8885C
S1130378085C0131599DF08F05FF5CDF6BF09F0528
S1130388FFC9F02A0400B6F0ADF044000061E8ECBF
S11303988D03008DE8314A9800FCE002008DE85C8A
S11303A80F9800FCE00200100261EFC061CFD76132
S11303B8EFC161CF2004714825FF715825FF7138BA
S11303C827FF712827FF711827FF710827FF713845
S11303D807FF712807FF711807FF710807FF715895
S11303E805FF714805FFCDF20FC9F02A0400B6F0E5
S11303F8ADF044000061E8ECF50300B4F261E8EC08
S1130408F10300CDE80351039800FCE00200CDF2AB
S113041805C9F02A0400B6F0ADF044000061E8EC28
S11304281D0400B4F261E8EC190400B4E861E8ECD6
S11304380E040051029800FCE002008DE898008840
S11304480A6C209802FC6C03008DE89800880C6CF8
S1130458089802FC6C03008DE89800E19802FC6C93
S113046803008DE8980051069802FC6C0300100400
S113047861EFC061CFD72004F19800880A3169760A
S11304888808610E6C809802FC6C03001004D72065
S11304980488089DF04AF00C61F8ECD404004AF092
S11304A80D61F8ECC604004AF00A61F8ECC60400D1
S11304B8E198008DF09802FC6C03001004D7F198C1
S11304C80051C09802FC6C03001004D7F19800E1B5
S11304D89802FC6C0300CDF205C9F02A0400B6F0BA
S11304E8ADF044000061E8ECE50400B4F261E8EC26
S11304F8E104001004D761EFC161CF2002A808BD50
S1130508E8168B9DF0D4F061F8EC2C05008DF0987A
S113051800FC970400A6E8FAE88B9DF0D4F061E8A3
S1130528EC150500100261EFC061CFD761EFC1C3BC
S1130538C561CF2014A81EBDE8C9F01027E4F33024
S11305480A00B80CF6B80EF4F2ADE846F061D8EC3F
S1130558190600ADE826F0BDE8A4F246F061C8EC3F
S11305685B05008DF20C309DF28DF298008DF098A9
S11305780B8DF1980AFC970400880B9DF0880A9D5E
S1130588F1ADF0BDEAF4EC8DEC9DEDA80CBDF4A83A
S11305980EBDF651C09FE800ADECBEF2ADEABEF068
S11305A8ADF6BEF4ADF4BEF651C19FE8008FE80085
S11305B83103FAAEF0BDF0AEF2BDF2ADF0440A007C
S11305C861F8ECFF05008DED9DF3ADF0440000618A
S11305D8E8EC4F0500D4F361F8ECED0500513098D0
S11305E800FC970400101461EFC4C2C061CFD75156
S11305F8309800FC970400512E9800FC970400C919
S1130608F00A00F4F3F4F2ADE846F061C8EC5B05D7
S113061800D4F361F8EC7E0600ADF0B8108DF298C2
S1130628129813A810BDF4A812BDF6A80CBDF0A822
S11306380EBDF251C09FE800ADF6BEF2ADF4BEF0B7
S1130648ADF2BEF4ADF0BEF651C19FE8008FE800EC
S11306583103FAAEF0BDF4AEF2BDF6ADF4B806ADB2
S1130668F6B808ADF4BDF0440A0061F8ECF70500EB
S1130678E4F3ECD20500CDF230EC71050061EFC172
S1130688C3C561CF2014881E9DE8C9EC0300CDEAD8
S113069864E4E9300A00B80CF6B80E8DE998038DC5
S11306A8E89802F4F188024BEA61D8EC6407008800
S11306B8029DE88DEA768DE8612E9DE8A4F14BEA67
S11306C861C8ECBB060098028DF10C309DF18DF1E8
S11306D898008DF4980B8DF5980A8DF698098DF786
S11306E89808FC970400F198038DEA9DF4F4F58DBD
S11306F8F59DF69DF7A80CBDF0A80EBDF251C09F5C
S1130708E800ADF6BEF2ADF4BEF0ADF2BEF4ADF065
S1130718BEF651C19FE8008FE8003103FAAEF0BD80
S1130728F0AEF2BDF2ADF0B804ADF2B8068DF09DAE
S1130738EAB6ECADEC44000061E8ECAB06008803D3
S11307489DE9D4E961F8EC5A070051309800FC9708
S11307580400101461EFC4C2C061CFD78803D1610B
S1130768F8EC740700E19803ECF10600CDF130ECE5
S1130778D6060061EFC1C361CF201C713826FF7112
S11307883806FFF6B818F6B81AA818B804A81AB89C
S113079806A806440100A80461F8449F8661F3ECA6
S11307A8E30700A818BDF4A81ABDF6ADF4040100C7
S11307B8BDE8ADF661D8A1BDEAADE8B818ADEAB8B0
S11307C81AA818BDF0A81ABDF2ADF2440100ADF0A4
S11307D861F8449F8661E3ECAB0700713006FFF6CD
S11307E8B818F6B81AA818B800A81AB802A8024483
S11307F80100A80061F8449F8661F3EC870700AD07
S1130808F0B810ADF2B812ADF4B814ADF6B816A835
S113081818BDF4A81ABDF6ADF4040100BDE8ADF6A0
S113082861D8A1BDEAADE8B818ADEAB81AA818BDF0
S1130838F0A81ABDF2ADF2440100ADF061F8449F8E
S11308488661E3EC170800ADF0B808ADF2B80AA861
S113085810BDF0A812BDF2ADF4B80CADF6B80EA8F0
S113086814BDF4A816BDF6EC87070061EFC1C36197
S1130878CF201251089800510498028DF098078DE2
S1130888F198068DF298058DF39804FCB703008857
S1130898079DF088069DF188059DF288049DF35113
S11308A80C98008DF098078DF198068DF298058DB7
S11308B8F39804FC970400F19800F19802FC7E0474
S11308C800300020B800FCFE0400F1980D88079D54
S11308D8F088069DF188059DF288049DF3880D4CE7
S11308E86361F3ECA70800F19800E198028DF09891
S11308F8078DF198068DF298058DF39804FC7E0413
S113090800880D9800FC850600F6B80EF6B810A805
S11309180EB808A810B80A88079DF088069DF188C3
S1130928059DF288049DF3A80A440700A80861F805
S1130938441FA161F3EC790900A80EBDF0A810BD0D
S1130948F2ADF0040100BDF4ADF261D8A1BDF6AD7D
S1130958F4B80EADF6B810A80EBDE8A810BDEAADFF
S1130968EA440700ADE861F8441FA161E3EC4109DA
S113097800FBF8FF61590D880D4C6361E3ECEF0847
S113098800ECA708008F09CBF8DCFE410061CF34E6
S1130998D8003600EF61DF3600EF3000EF27311E54
S11309A8440000DD0EB161CF11A9BBA5A5A7A761BD
S11309B8DFEFED61CF30000061DF306CF13600EF1E
S11309C827311E440000DD0AB161CFBBA7A761DF50
S11309D8EFF161CFFCD8000000300000C1C1C1FCB8
S11309E84D0B00EFFE61FFD901EFF1311D3202EF2B
S11309F80314AEF8B95118D901EF80D6040AEFBE32
S1130A08F861EFC1C3C5C761DFC1C3C5C761CFC141
S1130A18C3C5C761FFD75118D901EFD6040AEFBE81
S1130A28F861CFC6C4C2C061DFC6C4C2C061EFC624
S1130A38C4C2C061FFD901EFF1311D3202EF0314C2
S1130A48A9BEF861FCD74000EF0361F3ECA50A00E6
S1130A58A804BF6AEF8F00EF9F01EFA000EF61FFCA
S1130A68FBF8FFF6348000F3F901EF8205B3D3DF16
S1130A78FBD2DFF812306CEF03BEF814300086C1E5
S1130A88AF6AEFC1D901EFF1311D3202EF0314AEA1
S1130A98F8B917BEF861CF8F01EF9DF0D7CDF0FFFD
S1130AA8D7F501EF51109FF3007170F000300E80FC
S1130AB8BF90FF7128E7FF61FFAF02EFBEF861FC4A
S1130AC800D761FFD901EFF1311D3202EF0314AEF3
S1130AD8F8B95118D901EF80D6040AEFBEF861EFCE
S1130AE8C1C3C5C761DFC1C3C5C761CFC1C3C5C75A
S1130AF861FFA001EF8F01EF9DF28F00EF9DF08D54
S1130B08F2318FCDF10046F071FF7177F161D8ECC5
S1130B181E0B00F501EF5118D901EFD6040AEFBEF8
S1130B28F861CFC6C4C2C061DFC6C4C2C061EFC623
S1130B38C4C2C061FFD901EFF1311D3202EF0314C1
S1130B48A9BEF861FC2002307B07B800FC4E0A00FD
S1130B58307308B800FC4E0A00FCA90A00EC650BC7
S1050B68000087
S10B200054657374696E6700F6
S903098F64
